{
  "transactions": [
    {
      "hash": "0x1f7adddc723cb9523ba8b7ae61a22c2948a71a47aadfd5e3a767256e7b12a199",
      "transactionType": "CALL",
      "contractName": null,
      "contractAddress": "0xC4a32c2bD650492FCC3f838E57c484B33E016732",
      "function": "mintNFT(address,address)",
      "arguments": [
        "0xf611447EE2116b3146c47B73711a5c80819277cD",
        "0x7c235463E463df5056342F1971a039641c76340A"
      ],
      "transaction": {
        "type": "0x02",
        "from": "0xf611447ee2116b3146c47b73711a5c80819277cd",
        "to": "0xc4a32c2bd650492fcc3f838e57c484b33e016732",
        "gas": "0x4fdd2",
        "value": "0x0",
        "data": "0x465dcabb000000000000000000000000f611447ee2116b3146c47b73711a5c80819277cd0000000000000000000000007c235463e463df5056342f1971a039641c76340a",
        "nonce": "0x3",
        "accessList": []
      },
      "additionalContracts": [],
      "isFixedGasLimit": false
    }
  ],
  "receipts": [
    {
      "transactionHash": "0x1f7adddc723cb9523ba8b7ae61a22c2948a71a47aadfd5e3a767256e7b12a199",
      "transactionIndex": "0x1",
      "blockHash": "0xfeefb293718a936226441687416e07bad4b97bec90d4f9269356fddd0c0c7c9d",
      "blockNumber": "0x97fc34",
      "from": "0xf611447EE2116b3146c47B73711a5c80819277cD",
      "to": "0xC4a32c2bD650492FCC3f838E57c484B33E016732",
      "cumulativeGasUsed": "0x41529",
      "gasUsed": "0x369ba",
      "contractAddress": null,
      "logs": [
        {
          "address": "0x7c235463E463df5056342F1971a039641c76340A",
          "topics": [
            "0xddf252ad1be2c89b69c2b068fc378daa952ba7f163c4a11628f55a4df523b3ef",
            "0x0000000000000000000000000000000000000000000000000000000000000000",
            "0x000000000000000000000000f611447ee2116b3146c47b73711a5c80819277cd",
            "0x0000000000000000000000000000000000000000000000000000000000000000"
          ],
          "data": "0x",
          "blockHash": "0xfeefb293718a936226441687416e07bad4b97bec90d4f9269356fddd0c0c7c9d",
          "blockNumber": "0x97fc34",
          "transactionHash": "0x1f7adddc723cb9523ba8b7ae61a22c2948a71a47aadfd5e3a767256e7b12a199",
          "transactionIndex": "0x1",
          "logIndex": "0x0",
          "removed": false
        },
        {
          "address": "0x7c235463E463df5056342F1971a039641c76340A",
          "topics": [
            "0xf8e1a15aba9398e019f0b49df1a4fde98ee17ae345cb5f6b5e2c27f5033e8ce7"
          ],
          "data": "0x0000000000000000000000000000000000000000000000000000000000000000",
          "blockHash": "0xfeefb293718a936226441687416e07bad4b97bec90d4f9269356fddd0c0c7c9d",
          "blockNumber": "0x97fc34",
          "transactionHash": "0x1f7adddc723cb9523ba8b7ae61a22c2948a71a47aadfd5e3a767256e7b12a199",
          "transactionIndex": "0x1",
          "logIndex": "0x1",
          "removed": false
        },
        {
          "address": "0xC4a32c2bD650492FCC3f838E57c484B33E016732",
          "topics": [
            "0x2f7377f0470ca5f5d5bcb55c33ff5e20e0a2653933e0615e99f01e81640d0a92",
            "0x000000000000000000000000f611447ee2116b3146c47b73711a5c80819277cd"
          ],
          "data": "0x0000000000000000000000007c235463e463df5056342f1971a039641c76340a0000000000000000000000000000000000000000000000000000000000000000",
          "blockHash": "0xfeefb293718a936226441687416e07bad4b97bec90d4f9269356fddd0c0c7c9d",
          "blockNumber": "0x97fc34",
          "transactionHash": "0x1f7adddc723cb9523ba8b7ae61a22c2948a71a47aadfd5e3a767256e7b12a199",
          "transactionIndex": "0x1",
          "logIndex": "0x2",
          "removed": false
        }
      ],
      "status": "0x1",
      "logsBloom": "0x00000000000000104000000000000000000000040000000000000000000000000000000000000000100000000000000000000000000000100000000000000000000000000000000000000008000000000000000000000000000000000000000000000000020000020000000000000800020000000000000000000010000000080000000000000000000000000000000000000000000000000000000000000000000400000000000000000000000000002000000000000000001000001000008000000002000000000000000000000000000000000000000000000000000020000000000000000000200000000000000000000000000000000000000000000020",
      "type": "0x2",
      "effectiveGasPrice": "0xb2d05efc"
    }
  ],
  "libraries": [],
  "pending": [],
  "returns": {},
  "timestamp": 1711723545,
  "chain": 11155420,
  "commit": "225bb5d"
}